{
    "abi": [
        {
            "type": "constructor",
            "inputs": [
                {
                    "name": "initialOwner",
                    "type": "address",
                    "internalType": "address"
                },
                {
                    "name": "contentOwner",
                    "type": "address",
                    "internalType": "address"
                },
                {
                    "name": "ipfsHash",
                    "type": "string",
                    "internalType": "string"
                },
                {
                    "name": "curveAddress",
                    "type": "address",
                    "internalType": "address"
                },
                {
                    "name": "spotPrice",
                    "type": "uint128",
                    "internalType": "uint128"
                },
                {
                    "name": "delta",
                    "type": "uint128",
                    "internalType": "uint128"
                }
            ],
            "stateMutability": "nonpayable"
        },
        {
            "type": "fallback",
            "stateMutability": "payable"
        },
        {
            "type": "receive",
            "stateMutability": "payable"
        },
        {
            "type": "function",
            "name": "_contentOwner",
            "inputs": [],
            "outputs": [
                {
                    "name": "",
                    "type": "address",
                    "internalType": "address"
                }
            ],
            "stateMutability": "view"
        },
        {
            "type": "function",
            "name": "_curve",
            "inputs": [],
            "outputs": [
                {
                    "name": "",
                    "type": "address",
                    "internalType": "contract ICurve"
                }
            ],
            "stateMutability": "view"
        },
        {
            "type": "function",
            "name": "_delta",
            "inputs": [],
            "outputs": [
                {
                    "name": "",
                    "type": "uint128",
                    "internalType": "uint128"
                }
            ],
            "stateMutability": "view"
        },
        {
            "type": "function",
            "name": "_ipfsHash",
            "inputs": [],
            "outputs": [
                {
                    "name": "",
                    "type": "string",
                    "internalType": "string"
                }
            ],
            "stateMutability": "view"
        },
        {
            "type": "function",
            "name": "_spotPrice",
            "inputs": [],
            "outputs": [
                {
                    "name": "",
                    "type": "uint128",
                    "internalType": "uint128"
                }
            ],
            "stateMutability": "view"
        },
        {
            "type": "function",
            "name": "approve",
            "inputs": [
                {
                    "name": "to",
                    "type": "address",
                    "internalType": "address"
                },
                {
                    "name": "tokenId",
                    "type": "uint256",
                    "internalType": "uint256"
                }
            ],
            "outputs": [],
            "stateMutability": "nonpayable"
        },
        {
            "type": "function",
            "name": "balanceOf",
            "inputs": [
                {
                    "name": "owner",
                    "type": "address",
                    "internalType": "address"
                }
            ],
            "outputs": [
                {
                    "name": "",
                    "type": "uint256",
                    "internalType": "uint256"
                }
            ],
            "stateMutability": "view"
        },
        {
            "type": "function",
            "name": "getApproved",
            "inputs": [
                {
                    "name": "tokenId",
                    "type": "uint256",
                    "internalType": "uint256"
                }
            ],
            "outputs": [
                {
                    "name": "",
                    "type": "address",
                    "internalType": "address"
                }
            ],
            "stateMutability": "view"
        },
        {
            "type": "function",
            "name": "isApprovedForAll",
            "inputs": [
                {
                    "name": "owner",
                    "type": "address",
                    "internalType": "address"
                },
                {
                    "name": "operator",
                    "type": "address",
                    "internalType": "address"
                }
            ],
            "outputs": [
                {
                    "name": "",
                    "type": "bool",
                    "internalType": "bool"
                }
            ],
            "stateMutability": "view"
        },
        {
            "type": "function",
            "name": "name",
            "inputs": [],
            "outputs": [
                {
                    "name": "",
                    "type": "string",
                    "internalType": "string"
                }
            ],
            "stateMutability": "view"
        },
        {
            "type": "function",
            "name": "owner",
            "inputs": [],
            "outputs": [
                {
                    "name": "",
                    "type": "address",
                    "internalType": "address"
                }
            ],
            "stateMutability": "view"
        },
        {
            "type": "function",
            "name": "ownerOf",
            "inputs": [
                {
                    "name": "tokenId",
                    "type": "uint256",
                    "internalType": "uint256"
                }
            ],
            "outputs": [
                {
                    "name": "",
                    "type": "address",
                    "internalType": "address"
                }
            ],
            "stateMutability": "view"
        },
        {
            "type": "function",
            "name": "renounceOwnership",
            "inputs": [],
            "outputs": [],
            "stateMutability": "nonpayable"
        },
        {
            "type": "function",
            "name": "retrieveFunds",
            "inputs": [
                {
                    "name": "amount",
                    "type": "uint256",
                    "internalType": "uint256"
                }
            ],
            "outputs": [],
            "stateMutability": "nonpayable"
        },
        {
            "type": "function",
            "name": "safeMint",
            "inputs": [
                {
                    "name": "to",
                    "type": "address",
                    "internalType": "address"
                }
            ],
            "outputs": [],
            "stateMutability": "payable"
        },
        {
            "type": "function",
            "name": "safeTransferFrom",
            "inputs": [
                {
                    "name": "from",
                    "type": "address",
                    "internalType": "address"
                },
                {
                    "name": "to",
                    "type": "address",
                    "internalType": "address"
                },
                {
                    "name": "tokenId",
                    "type": "uint256",
                    "internalType": "uint256"
                }
            ],
            "outputs": [],
            "stateMutability": "nonpayable"
        },
        {
            "type": "function",
            "name": "safeTransferFrom",
            "inputs": [
                {
                    "name": "from",
                    "type": "address",
                    "internalType": "address"
                },
                {
                    "name": "to",
                    "type": "address",
                    "internalType": "address"
                },
                {
                    "name": "tokenId",
                    "type": "uint256",
                    "internalType": "uint256"
                },
                {
                    "name": "data",
                    "type": "bytes",
                    "internalType": "bytes"
                }
            ],
            "outputs": [],
            "stateMutability": "nonpayable"
        },
        {
            "type": "function",
            "name": "setApprovalForAll",
            "inputs": [
                {
                    "name": "operator",
                    "type": "address",
                    "internalType": "address"
                },
                {
                    "name": "approved",
                    "type": "bool",
                    "internalType": "bool"
                }
            ],
            "outputs": [],
            "stateMutability": "nonpayable"
        },
        {
            "type": "function",
            "name": "supportsInterface",
            "inputs": [
                {
                    "name": "interfaceId",
                    "type": "bytes4",
                    "internalType": "bytes4"
                }
            ],
            "outputs": [
                {
                    "name": "",
                    "type": "bool",
                    "internalType": "bool"
                }
            ],
            "stateMutability": "view"
        },
        {
            "type": "function",
            "name": "symbol",
            "inputs": [],
            "outputs": [
                {
                    "name": "",
                    "type": "string",
                    "internalType": "string"
                }
            ],
            "stateMutability": "view"
        },
        {
            "type": "function",
            "name": "tokenURI",
            "inputs": [
                {
                    "name": "tokenId",
                    "type": "uint256",
                    "internalType": "uint256"
                }
            ],
            "outputs": [
                {
                    "name": "",
                    "type": "string",
                    "internalType": "string"
                }
            ],
            "stateMutability": "view"
        },
        {
            "type": "function",
            "name": "transferFrom",
            "inputs": [
                {
                    "name": "from",
                    "type": "address",
                    "internalType": "address"
                },
                {
                    "name": "to",
                    "type": "address",
                    "internalType": "address"
                },
                {
                    "name": "tokenId",
                    "type": "uint256",
                    "internalType": "uint256"
                }
            ],
            "outputs": [],
            "stateMutability": "nonpayable"
        },
        {
            "type": "function",
            "name": "transferOwnership",
            "inputs": [
                {
                    "name": "newOwner",
                    "type": "address",
                    "internalType": "address"
                }
            ],
            "outputs": [],
            "stateMutability": "nonpayable"
        },
        {
            "type": "event",
            "name": "Approval",
            "inputs": [
                {
                    "name": "owner",
                    "type": "address",
                    "indexed": true,
                    "internalType": "address"
                },
                {
                    "name": "approved",
                    "type": "address",
                    "indexed": true,
                    "internalType": "address"
                },
                {
                    "name": "tokenId",
                    "type": "uint256",
                    "indexed": true,
                    "internalType": "uint256"
                }
            ],
            "anonymous": false
        },
        {
            "type": "event",
            "name": "ApprovalForAll",
            "inputs": [
                {
                    "name": "owner",
                    "type": "address",
                    "indexed": true,
                    "internalType": "address"
                },
                {
                    "name": "operator",
                    "type": "address",
                    "indexed": true,
                    "internalType": "address"
                },
                {
                    "name": "approved",
                    "type": "bool",
                    "indexed": false,
                    "internalType": "bool"
                }
            ],
            "anonymous": false
        },
        {
            "type": "event",
            "name": "OwnershipTransferred",
            "inputs": [
                {
                    "name": "previousOwner",
                    "type": "address",
                    "indexed": true,
                    "internalType": "address"
                },
                {
                    "name": "newOwner",
                    "type": "address",
                    "indexed": true,
                    "internalType": "address"
                }
            ],
            "anonymous": false
        },
        {
            "type": "event",
            "name": "Transfer",
            "inputs": [
                {
                    "name": "from",
                    "type": "address",
                    "indexed": true,
                    "internalType": "address"
                },
                {
                    "name": "to",
                    "type": "address",
                    "indexed": true,
                    "internalType": "address"
                },
                {
                    "name": "tokenId",
                    "type": "uint256",
                    "indexed": true,
                    "internalType": "uint256"
                }
            ],
            "anonymous": false
        },
        {
            "type": "error",
            "name": "ERC721IncorrectOwner",
            "inputs": [
                {
                    "name": "sender",
                    "type": "address",
                    "internalType": "address"
                },
                {
                    "name": "tokenId",
                    "type": "uint256",
                    "internalType": "uint256"
                },
                {
                    "name": "owner",
                    "type": "address",
                    "internalType": "address"
                }
            ]
        },
        {
            "type": "error",
            "name": "ERC721InsufficientApproval",
            "inputs": [
                {
                    "name": "operator",
                    "type": "address",
                    "internalType": "address"
                },
                {
                    "name": "tokenId",
                    "type": "uint256",
                    "internalType": "uint256"
                }
            ]
        },
        {
            "type": "error",
            "name": "ERC721InvalidApprover",
            "inputs": [
                {
                    "name": "approver",
                    "type": "address",
                    "internalType": "address"
                }
            ]
        },
        {
            "type": "error",
            "name": "ERC721InvalidOperator",
            "inputs": [
                {
                    "name": "operator",
                    "type": "address",
                    "internalType": "address"
                }
            ]
        },
        {
            "type": "error",
            "name": "ERC721InvalidOwner",
            "inputs": [
                {
                    "name": "owner",
                    "type": "address",
                    "internalType": "address"
                }
            ]
        },
        {
            "type": "error",
            "name": "ERC721InvalidReceiver",
            "inputs": [
                {
                    "name": "receiver",
                    "type": "address",
                    "internalType": "address"
                }
            ]
        },
        {
            "type": "error",
            "name": "ERC721InvalidSender",
            "inputs": [
                {
                    "name": "sender",
                    "type": "address",
                    "internalType": "address"
                }
            ]
        },
        {
            "type": "error",
            "name": "ERC721NonexistentToken",
            "inputs": [
                {
                    "name": "tokenId",
                    "type": "uint256",
                    "internalType": "uint256"
                }
            ]
        },
        {
            "type": "error",
            "name": "InsufficientFunds",
            "inputs": []
        },
        {
            "type": "error",
            "name": "InvalidAddress",
            "inputs": []
        },
        {
            "type": "error",
            "name": "InvalidPrice",
            "inputs": []
        },
        {
            "type": "error",
            "name": "OwnableInvalidOwner",
            "inputs": [
                {
                    "name": "owner",
                    "type": "address",
                    "internalType": "address"
                }
            ]
        },
        {
            "type": "error",
            "name": "OwnableUnauthorizedAccount",
            "inputs": [
                {
                    "name": "account",
                    "type": "address",
                    "internalType": "address"
                }
            ]
        }
    ],
    "bytecode": {
        "object": "0x608060405234801561001057600080fd5b50604051611a2f380380611a2f83398101604081905261002f91610244565b856040518060400160405280600d81526020016c50617977616c6c41636365737360981b8152506040518060400160405280600381526020016250415960e81b815250816000908161008191906103ea565b50600161008e82826103ea565b5050506001600160a01b0381166100bf57604051631e4fbdf760e01b81526000600482015260240160405180910390fd5b6100c8816101a9565b506001600160a01b03861615806100e657506001600160a01b038516155b806100f857506001600160a01b038316155b156101165760405163e6c4247b60e01b815260040160405180910390fd5b816001600160801b031660000361013f5760405162bfc92160e01b815260040160405180910390fd5b600880546001600160a01b0319166001600160a01b038716179055600a61016685826103ea565b50600b80546001600160a01b039094166001600160a01b0319909416939093179092556001600160801b03908116600160801b02911617600955506104a9915050565b600680546001600160a01b038381166001600160a01b0319831681179093556040519116919082907f8be0079c531659141344cd1fd0a4f28419497f9722a3daafe3b4186f6b6457e090600090a35050565b80516001600160a01b038116811461021257600080fd5b919050565b634e487b7160e01b600052604160045260246000fd5b80516001600160801b038116811461021257600080fd5b60008060008060008060c0878903121561025d57600080fd5b610266876101fb565b955060206102758189016101fb565b60408901519096506001600160401b038082111561029257600080fd5b818a0191508a601f8301126102a657600080fd5b8151818111156102b8576102b8610217565b604051601f8201601f19908116603f011681019083821181831017156102e0576102e0610217565b816040528281528d868487010111156102f857600080fd5b600093505b8284101561031a57848401860151818501870152928501926102fd565b6000868483010152809950505050505050610337606088016101fb565b92506103456080880161022d565b915061035360a0880161022d565b90509295509295509295565b600181811c9082168061037357607f821691505b60208210810361039357634e487b7160e01b600052602260045260246000fd5b50919050565b601f8211156103e5576000816000526020600020601f850160051c810160208610156103c25750805b601f850160051c820191505b818110156103e1578281556001016103ce565b5050505b505050565b81516001600160401b0381111561040357610403610217565b61041781610411845461035f565b84610399565b602080601f83116001811461044c57600084156104345750858301515b600019600386901b1c1916600185901b1785556103e1565b600085815260208120601f198616915b8281101561047b5788860151825594840194600190910190840161045c565b50858210156104995787850151600019600388901b60f8161c191681555b5050505050600190811b01905550565b611577806104b86000396000f3fe6080604052600436106101385760003560e01c806370a08231116100b0578063c87b56dd1161006c578063c87b56dd14610398578063cc2867d7146103b8578063dbffb33e146103cd578063e985e9c5146103ed578063f2fde38b1461040d578063fc41491e1461042d57005b806370a08231146102e2578063715018a6146103105780638da5cb5b1461032557806395d89b4114610343578063a22cb46514610358578063b88d4fde1461037857005b80631ee4cac8116100ff5780631ee4cac81461022f57806323b872dd1461024f57806340d097c31461026f57806342842e0e1461028257806355a21b9e146102a25780636352211e146102c257005b806301ffc9a71461014157806306fdde0314610176578063081812fc14610198578063095ea7b3146101d05780630e5104c9146101f057005b3661013f57005b005b34801561014d57600080fd5b5061016161015c366004611129565b61044d565b60405190151581526020015b60405180910390f35b34801561018257600080fd5b5061018b61049f565b60405161016d9190611196565b3480156101a457600080fd5b506101b86101b33660046111a9565b610531565b6040516001600160a01b03909116815260200161016d565b3480156101dc57600080fd5b5061013f6101eb3660046111de565b61055a565b3480156101fc57600080fd5b5060095461021790600160801b90046001600160801b031681565b6040516001600160801b03909116815260200161016d565b34801561023b57600080fd5b50600954610217906001600160801b031681565b34801561025b57600080fd5b5061013f61026a366004611208565b610569565b61013f61027d366004611244565b6105f9565b34801561028e57600080fd5b5061013f61029d366004611208565b61065b565b3480156102ae57600080fd5b50600b546101b8906001600160a01b031681565b3480156102ce57600080fd5b506101b86102dd3660046111a9565b610676565b3480156102ee57600080fd5b506103026102fd366004611244565b610681565b60405190815260200161016d565b34801561031c57600080fd5b5061013f6106c9565b34801561033157600080fd5b506006546001600160a01b03166101b8565b34801561034f57600080fd5b5061018b6106dd565b34801561036457600080fd5b5061013f61037336600461125f565b6106ec565b34801561038457600080fd5b5061013f6103933660046112b1565b6106f7565b3480156103a457600080fd5b5061018b6103b33660046111a9565b61070e565b3480156103c457600080fd5b5061018b610783565b3480156103d957600080fd5b506008546101b8906001600160a01b031681565b3480156103f957600080fd5b5061016161040836600461138d565b610811565b34801561041957600080fd5b5061013f610428366004611244565b61083f565b34801561043957600080fd5b5061013f6104483660046111a9565b61087d565b60006001600160e01b031982166380ac58cd60e01b148061047e57506001600160e01b03198216635b5e139f60e01b145b8061049957506301ffc9a760e01b6001600160e01b03198316145b92915050565b6060600080546104ae906113c0565b80601f01602080910402602001604051908101604052809291908181526020018280546104da906113c0565b80156105275780601f106104fc57610100808354040283529160200191610527565b820191906000526020600020905b81548152906001019060200180831161050a57829003601f168201915b5050505050905090565b600061053c8261090e565b506000828152600460205260409020546001600160a01b0316610499565b610565828233610947565b5050565b6001600160a01b03821661059857604051633250574960e11b8152600060048201526024015b60405180910390fd5b60006105a5838333610954565b9050836001600160a01b0316816001600160a01b0316146105f3576040516364283d7b60e01b81526001600160a01b038086166004830152602482018490528216604482015260640161058f565b50505050565b6000610612600754600161060d9190611410565b610a4d565b9050803410156106355760405163356680b760e01b815260040160405180910390fd5b600780546000918261064683611423565b9190505590506106568382610afb565b505050565b610656838383604051806020016040528060008152506106f7565b60006104998261090e565b60006001600160a01b0382166106ad576040516322718ad960e21b81526000600482015260240161058f565b506001600160a01b031660009081526003602052604090205490565b6106d1610b15565b6106db6000610b42565b565b6060600180546104ae906113c0565b610565338383610b94565b610702848484610569565b6105f384848484610c33565b60606107198261090e565b50600061073160408051602081019091526000815290565b90506000815111610751576040518060200160405280600081525061077c565b8061075b84610d5c565b60405160200161076c92919061143c565b6040516020818303038152906040525b9392505050565b600a8054610790906113c0565b80601f01602080910402602001604051908101604052809291908181526020018280546107bc906113c0565b80156108095780601f106107de57610100808354040283529160200191610809565b820191906000526020600020905b8154815290600101906020018083116107ec57829003601f168201915b505050505081565b6001600160a01b03918216600090815260056020908152604080832093909416825291909152205460ff1690565b610847610b15565b6001600160a01b03811661087157604051631e4fbdf760e01b81526000600482015260240161058f565b61087a81610b42565b50565b6008546001600160a01b0316331415806108a257506006546001600160a01b03163314155b156108c05760405163e6c4247b60e01b815260040160405180910390fd5b478111156108e15760405163356680b760e01b815260040160405180910390fd5b604051339082156108fc029083906000818181858888f19350505050158015610565573d6000803e3d6000fd5b6000818152600260205260408120546001600160a01b03168061049957604051637e27328960e01b81526004810184905260240161058f565b6106568383836001610def565b6000828152600260205260408120546001600160a01b039081169083161561098157610981818486610ef5565b6001600160a01b038116156109bf5761099e600085600080610def565b6001600160a01b038116600090815260036020526040902080546000190190555b6001600160a01b038516156109ee576001600160a01b0385166000908152600360205260409020805460010190555b60008481526002602052604080822080546001600160a01b0319166001600160a01b0389811691821790925591518793918516917fddf252ad1be2c89b69c2b068fc378daa952ba7f163c4a11628f55a4df523b3ef91a4949350505050565b600b54600954604051631f2950ab60e21b81526001600160801b03600160801b830481166004830152909116602482015260448101839052600060648201819052608482018190529182916001600160a01b0390911690637ca542ac9060a40160c060405180830381865afa158015610aca573d6000803e3d6000fd5b505050506040513d601f19601f82011682018060405250810190610aee9190611482565b5090979650505050505050565b610565828260405180602001604052806000815250610f59565b6006546001600160a01b031633146106db5760405163118cdaa760e01b815233600482015260240161058f565b600680546001600160a01b038381166001600160a01b0319831681179093556040519116919082907f8be0079c531659141344cd1fd0a4f28419497f9722a3daafe3b4186f6b6457e090600090a35050565b6001600160a01b038216610bc657604051630b61174360e31b81526001600160a01b038316600482015260240161058f565b6001600160a01b03838116600081815260056020908152604080832094871680845294825291829020805460ff191686151590811790915591519182527f17307eab39ab6107e8899845ad3d59bd9653f200f220920489ca2b5937696c31910160405180910390a3505050565b6001600160a01b0383163b156105f357604051630a85bd0160e11b81526001600160a01b0384169063150b7a0290610c759033908890879087906004016114e7565b6020604051808303816000875af1925050508015610cb0575060408051601f3d908101601f19168201909252610cad91810190611524565b60015b610d19573d808015610cde576040519150601f19603f3d011682016040523d82523d6000602084013e610ce3565b606091505b508051600003610d1157604051633250574960e11b81526001600160a01b038516600482015260240161058f565b805181602001fd5b6001600160e01b03198116630a85bd0160e11b14610d5557604051633250574960e11b81526001600160a01b038516600482015260240161058f565b5050505050565b60606000610d6983610f70565b600101905060008167ffffffffffffffff811115610d8957610d8961129b565b6040519080825280601f01601f191660200182016040528015610db3576020820181803683370190505b5090508181016020015b600019016f181899199a1a9b1b9c1cb0b131b232b360811b600a86061a8153600a8504945084610dbd57509392505050565b8080610e0357506001600160a01b03821615155b15610ec5576000610e138461090e565b90506001600160a01b03831615801590610e3f5750826001600160a01b0316816001600160a01b031614155b8015610e525750610e508184610811565b155b15610e7b5760405163a9fbf51f60e01b81526001600160a01b038416600482015260240161058f565b8115610ec35783856001600160a01b0316826001600160a01b03167f8c5be1e5ebec7d5bd14f71427d1e84f3dd0314c0f7b2291e5b200ac8c7c3b92560405160405180910390a45b505b5050600090815260046020526040902080546001600160a01b0319166001600160a01b0392909216919091179055565b610f00838383611048565b610656576001600160a01b038316610f2e57604051637e27328960e01b81526004810182905260240161058f565b60405163177e802f60e01b81526001600160a01b03831660048201526024810182905260440161058f565b610f6383836110ae565b6106566000848484610c33565b60008072184f03e93ff9f4daa797ed6e38ed64bf6a1f0160401b8310610faf5772184f03e93ff9f4daa797ed6e38ed64bf6a1f0160401b830492506040015b6d04ee2d6d415b85acef81000000008310610fdb576d04ee2d6d415b85acef8100000000830492506020015b662386f26fc100008310610ff957662386f26fc10000830492506010015b6305f5e1008310611011576305f5e100830492506008015b612710831061102557612710830492506004015b60648310611037576064830492506002015b600a83106104995760010192915050565b60006001600160a01b038316158015906110a65750826001600160a01b0316846001600160a01b0316148061108257506110828484610811565b806110a657506000828152600460205260409020546001600160a01b038481169116145b949350505050565b6001600160a01b0382166110d857604051633250574960e11b81526000600482015260240161058f565b60006110e683836000610954565b90506001600160a01b03811615610656576040516339e3563760e11b81526000600482015260240161058f565b6001600160e01b03198116811461087a57600080fd5b60006020828403121561113b57600080fd5b813561077c81611113565b60005b83811015611161578181015183820152602001611149565b50506000910152565b60008151808452611182816020860160208601611146565b601f01601f19169290920160200192915050565b60208152600061077c602083018461116a565b6000602082840312156111bb57600080fd5b5035919050565b80356001600160a01b03811681146111d957600080fd5b919050565b600080604083850312156111f157600080fd5b6111fa836111c2565b946020939093013593505050565b60008060006060848603121561121d57600080fd5b611226846111c2565b9250611234602085016111c2565b9150604084013590509250925092565b60006020828403121561125657600080fd5b61077c826111c2565b6000806040838503121561127257600080fd5b61127b836111c2565b91506020830135801515811461129057600080fd5b809150509250929050565b634e487b7160e01b600052604160045260246000fd5b600080600080608085870312156112c757600080fd5b6112d0856111c2565b93506112de602086016111c2565b925060408501359150606085013567ffffffffffffffff8082111561130257600080fd5b818701915087601f83011261131657600080fd5b8135818111156113285761132861129b565b604051601f8201601f19908116603f011681019083821181831017156113505761135061129b565b816040528281528a602084870101111561136957600080fd5b82602086016020830137600060208483010152809550505050505092959194509250565b600080604083850312156113a057600080fd5b6113a9836111c2565b91506113b7602084016111c2565b90509250929050565b600181811c908216806113d457607f821691505b6020821081036113f457634e487b7160e01b600052602260045260246000fd5b50919050565b634e487b7160e01b600052601160045260246000fd5b80820180821115610499576104996113fa565b600060018201611435576114356113fa565b5060010190565b6000835161144e818460208801611146565b835190830190611462818360208801611146565b01949350505050565b80516001600160801b03811681146111d957600080fd5b60008060008060008060c0878903121561149b57600080fd5b8651600581106114aa57600080fd5b95506114b86020880161146b565b94506114c66040880161146b565b9350606087015192506080870151915060a087015190509295509295509295565b6001600160a01b038581168252841660208201526040810183905260806060820181905260009061151a9083018461116a565b9695505050505050565b60006020828403121561153657600080fd5b815161077c8161111356fea26469706673582212209908cf58880d1048b16f6c4a030aca71b0fed218164abb710985fabdaf6a449464736f6c63430008190033",
        "linkReferences": {}
    },
    "methodIdentifiers": {
        "_contentOwner()": "dbffb33e",
        "_curve()": "55a21b9e",
        "_delta()": "1ee4cac8",
        "_ipfsHash()": "cc2867d7",
        "_spotPrice()": "0e5104c9",
        "approve(address,uint256)": "095ea7b3",
        "balanceOf(address)": "70a08231",
        "getApproved(uint256)": "081812fc",
        "isApprovedForAll(address,address)": "e985e9c5",
        "name()": "06fdde03",
        "owner()": "8da5cb5b",
        "ownerOf(uint256)": "6352211e",
        "renounceOwnership()": "715018a6",
        "retrieveFunds(uint256)": "fc41491e",
        "safeMint(address)": "40d097c3",
        "safeTransferFrom(address,address,uint256)": "42842e0e",
        "safeTransferFrom(address,address,uint256,bytes)": "b88d4fde",
        "setApprovalForAll(address,bool)": "a22cb465",
        "supportsInterface(bytes4)": "01ffc9a7",
        "symbol()": "95d89b41",
        "tokenURI(uint256)": "c87b56dd",
        "transferFrom(address,address,uint256)": "23b872dd",
        "transferOwnership(address)": "f2fde38b"
    },
    "id": 41
}